{
  "contractName": "Tribe",
  "abi": [
    {
      "constant": true,
      "inputs": [
        {
          "name": "",
          "type": "address"
        }
      ],
      "name": "stakedBalances",
      "outputs": [
        {
          "name": "",
          "type": "uint256"
        }
      ],
      "payable": false,
      "stateMutability": "view",
      "type": "function"
    },
    {
      "constant": true,
      "inputs": [],
      "name": "tribeTokenContractAddress",
      "outputs": [
        {
          "name": "",
          "type": "address"
        }
      ],
      "payable": false,
      "stateMutability": "view",
      "type": "function"
    },
    {
      "constant": true,
      "inputs": [
        {
          "name": "",
          "type": "address"
        }
      ],
      "name": "timeStaked",
      "outputs": [
        {
          "name": "",
          "type": "uint256"
        }
      ],
      "payable": false,
      "stateMutability": "view",
      "type": "function"
    },
    {
      "constant": true,
      "inputs": [],
      "name": "lockupPeriodSeconds",
      "outputs": [
        {
          "name": "",
          "type": "uint256"
        }
      ],
      "payable": false,
      "stateMutability": "view",
      "type": "function"
    },
    {
      "constant": true,
      "inputs": [],
      "name": "minimumStakingRequirement",
      "outputs": [
        {
          "name": "",
          "type": "uint256"
        }
      ],
      "payable": false,
      "stateMutability": "view",
      "type": "function"
    },
    {
      "inputs": [
        {
          "name": "_minimumStakingRequirement",
          "type": "uint256"
        },
        {
          "name": "_lockupPeriodSeconds",
          "type": "uint256"
        },
        {
          "name": "_curator",
          "type": "address"
        },
        {
          "name": "_tribeTokenContractAddress",
          "type": "address"
        }
      ],
      "payable": false,
      "stateMutability": "nonpayable",
      "type": "constructor"
    },
    {
      "constant": false,
      "inputs": [
        {
          "name": "_minimumStakingRequirement",
          "type": "uint256"
        }
      ],
      "name": "setMinimumStakingRequirement",
      "outputs": [],
      "payable": false,
      "stateMutability": "nonpayable",
      "type": "function"
    },
    {
      "constant": false,
      "inputs": [
        {
          "name": "_lockupPeriodSeconds",
          "type": "uint256"
        }
      ],
      "name": "setlockupPeriod",
      "outputs": [],
      "payable": false,
      "stateMutability": "nonpayable",
      "type": "function"
    },
    {
      "constant": false,
      "inputs": [
        {
          "name": "amount",
          "type": "uint256"
        }
      ],
      "name": "stakeTribeTokens",
      "outputs": [],
      "payable": true,
      "stateMutability": "payable",
      "type": "function"
    },
    {
      "constant": false,
      "inputs": [
        {
          "name": "amount",
          "type": "uint256"
        }
      ],
      "name": "unstakeTribeTokens",
      "outputs": [],
      "payable": false,
      "stateMutability": "nonpayable",
      "type": "function"
    },
    {
      "constant": true,
      "inputs": [
        {
          "name": "memberAddress",
          "type": "address"
        }
      ],
      "name": "isMember",
      "outputs": [
        {
          "name": "",
          "type": "bool"
        }
      ],
      "payable": false,
      "stateMutability": "view",
      "type": "function"
    }
  ],
  "bytecode": "0x608060405234801561001057600080fd5b5060405160808061096583398101806040528101908080519060200190929190805190602001909291908051906020019092919080519060200190929190505050816000806101000a81548173ffffffffffffffffffffffffffffffffffffffff021916908373ffffffffffffffffffffffffffffffffffffffff160217905550836002819055508260038190555080600160006101000a81548173ffffffffffffffffffffffffffffffffffffffff021916908373ffffffffffffffffffffffffffffffffffffffff16021790555050505050610872806100f36000396000f3006080604052600436106100a4576000357c0100000000000000000000000000000000000000000000000000000000900463ffffffff1680631460fa87146100a957806314820282146101005780632ede75891461012d5780636bf272ed1461015a5780636dc757471461017a578063778f8cb0146101d15780637a3629dc1461022857806389cc0f9014610255578063a230c52414610280578063f1f454bb146102db575b600080fd5b3480156100b557600080fd5b506100ea600480360381019080803573ffffffffffffffffffffffffffffffffffffffff169060200190929190505050610306565b6040518082815260200191505060405180910390f35b34801561010c57600080fd5b5061012b6004803603810190808035906020019092919050505061031e565b005b34801561013957600080fd5b5061015860048036038101908080359060200190929190505050610511565b005b61017860048036038101908080359060200190929190505050610573565b005b34801561018657600080fd5b5061018f61074c565b604051808273ffffffffffffffffffffffffffffffffffffffff1673ffffffffffffffffffffffffffffffffffffffff16815260200191505060405180910390f35b3480156101dd57600080fd5b50610212600480360381019080803573ffffffffffffffffffffffffffffffffffffffff169060200190929190505050610772565b6040518082815260200191505060405180910390f35b34801561023457600080fd5b506102536004803603810190808035906020019092919050505061078a565b005b34801561026157600080fd5b5061026a6107ec565b6040518082815260200191505060405180910390f35b34801561028c57600080fd5b506102c1600480360381019080803573ffffffffffffffffffffffffffffffffffffffff1690602001909291905050506107f2565b604051808215151515815260200191505060405180910390f35b3480156102e757600080fd5b506102f0610840565b6040518082815260200191505060405180910390f35b60046020528060005260406000206000915090505481565b6000600160009054906101000a900473ffffffffffffffffffffffffffffffffffffffff16905081600460003373ffffffffffffffffffffffffffffffffffffffff1673ffffffffffffffffffffffffffffffffffffffff16815260200190815260200160002054101561039157600080fd5b600354600560003373ffffffffffffffffffffffffffffffffffffffff1673ffffffffffffffffffffffffffffffffffffffff16815260200190815260200160002054420310156103e157600080fd5b81600460003373ffffffffffffffffffffffffffffffffffffffff1673ffffffffffffffffffffffffffffffffffffffff168152602001908152602001600020600082825403925050819055508073ffffffffffffffffffffffffffffffffffffffff1663a9059cbb33846040518363ffffffff167c0100000000000000000000000000000000000000000000000000000000028152600401808373ffffffffffffffffffffffffffffffffffffffff1673ffffffffffffffffffffffffffffffffffffffff16815260200182815260200192505050602060405180830381600087803b1580156104d157600080fd5b505af11580156104e5573d6000803e3d6000fd5b505050506040513d60208110156104fb57600080fd5b8101908080519060200190929190505050505050565b6000809054906101000a900473ffffffffffffffffffffffffffffffffffffffff1673ffffffffffffffffffffffffffffffffffffffff163373ffffffffffffffffffffffffffffffffffffffff1614151561056957fe5b8060038190555050565b6000600160009054906101000a900473ffffffffffffffffffffffffffffffffffffffff1690508073ffffffffffffffffffffffffffffffffffffffff166323b872dd3330856040518463ffffffff167c0100000000000000000000000000000000000000000000000000000000028152600401808473ffffffffffffffffffffffffffffffffffffffff1673ffffffffffffffffffffffffffffffffffffffff1681526020018373ffffffffffffffffffffffffffffffffffffffff1673ffffffffffffffffffffffffffffffffffffffff1681526020018281526020019350505050602060405180830381600087803b15801561067157600080fd5b505af1158015610685573d6000803e3d6000fd5b505050506040513d602081101561069b57600080fd5b810190808051906020019092919050505015156106b757600080fd5b81600460003373ffffffffffffffffffffffffffffffffffffffff1673ffffffffffffffffffffffffffffffffffffffff1681526020019081526020016000206000828254019250508190555042600560003373ffffffffffffffffffffffffffffffffffffffff1673ffffffffffffffffffffffffffffffffffffffff168152602001908152602001600020819055505050565b600160009054906101000a900473ffffffffffffffffffffffffffffffffffffffff1681565b60056020528060005260406000206000915090505481565b6000809054906101000a900473ffffffffffffffffffffffffffffffffffffffff1673ffffffffffffffffffffffffffffffffffffffff163373ffffffffffffffffffffffffffffffffffffffff161415156107e257fe5b8060028190555050565b60035481565b6000600254600460008473ffffffffffffffffffffffffffffffffffffffff1673ffffffffffffffffffffffffffffffffffffffff1681526020019081526020016000205410159050919050565b600254815600a165627a7a72305820d100a8bfa612a82e6e971eec1956291cae2c5cd6c81a572182e8f13295bfdad30029",
  "source": "pragma solidity ^0.4.8;\n\nimport './SmartToken.sol';\n\n// TODO -- use safemath for everything\n// TODO escrow stuff\ncontract Tribe {\n    \n    address curator;\n\n    address public tribeTokenContractAddress;\n    \n    uint public minimumStakingRequirement;\n    uint public lockupPeriodSeconds;\n\n    modifier onlyCurator {\n        assert(msg.sender == curator);\n        _;\n    }\n\n    constructor(uint _minimumStakingRequirement, uint _lockupPeriodSeconds, address _curator, address _tribeTokenContractAddress) public {\n        curator = _curator;\n        minimumStakingRequirement = _minimumStakingRequirement;\n        lockupPeriodSeconds = _lockupPeriodSeconds;\n        tribeTokenContractAddress = _tribeTokenContractAddress;\n    }\n\n\n\n    // Staking code below\n\n    mapping (address => uint256) public stakedBalances;\n    mapping (address => uint256) public timeStaked;\n    \n\n    function setMinimumStakingRequirement(uint _minimumStakingRequirement) public onlyCurator {\n        minimumStakingRequirement = _minimumStakingRequirement;\n    }\n\n    function setlockupPeriod(uint _lockupPeriodSeconds) public onlyCurator {\n        lockupPeriodSeconds = _lockupPeriodSeconds;\n    }\n\n    // TODO clarify how staking works.  Can they deposit multiple small amounts over time?   Does it have to be one deposit? etc...\n    function stakeTribeTokens(uint amount) payable public {\n\n        SmartToken tribeTokenInstance = SmartToken(tribeTokenContractAddress);\n        \n        if(!tribeTokenInstance.transferFrom(msg.sender, address(this), amount)) {\n            revert();\n        }\n\n        stakedBalances[msg.sender] += amount;\n        timeStaked[msg.sender] = now;\n    }\n\n    function unstakeTribeTokens(uint amount) public {\n\n        SmartToken tribeTokenInstance = SmartToken(tribeTokenContractAddress);\n\n        if(stakedBalances[msg.sender] < amount) {\n            revert();\n        }\n        if(now - timeStaked[msg.sender] < lockupPeriodSeconds) {\n            revert();\n        }\n\n        stakedBalances[msg.sender] -= amount;\n        tribeTokenInstance.transfer(msg.sender, amount);\n    }\n\n    function isMember(address memberAddress) public view returns (bool) {\n        return ( stakedBalances[memberAddress] >= minimumStakingRequirement );\n    }\n}",
  "sourcePath": "/Users/seanluther/Desktop/ideasbynature/native/native-tribe-contracts/contracts/Tribe.sol",
  "compiler": {
    "name": "solc",
    "version": "0.4.24+commit.e67f0147.Emscripten.clang"
  },
  "schemaVersion": "2.0.1",
  "updatedAt": "2018-07-13T21:45:45.914Z"
}